{
	"First Task.sol": {
		"Example": {
			"abi": [
				{
					"inputs": [
						{
							"internalType": "uint256",
							"name": "initial_value",
							"type": "uint256"
						},
						{
							"internalType": "string",
							"name": "description",
							"type": "string"
						}
					],
					"stateMutability": "nonpayable",
					"type": "constructor"
				},
				{
					"inputs": [],
					"name": "decrement_counter",
					"outputs": [],
					"stateMutability": "nonpayable",
					"type": "function"
				},
				{
					"inputs": [],
					"name": "get_counter_description",
					"outputs": [
						{
							"internalType": "string",
							"name": "",
							"type": "string"
						}
					],
					"stateMutability": "view",
					"type": "function"
				},
				{
					"inputs": [],
					"name": "get_counter_value",
					"outputs": [
						{
							"internalType": "uint256",
							"name": "",
							"type": "uint256"
						}
					],
					"stateMutability": "view",
					"type": "function"
				},
				{
					"inputs": [],
					"name": "increment_counter",
					"outputs": [],
					"stateMutability": "nonpayable",
					"type": "function"
				}
			],
			"devdoc": {
				"kind": "dev",
				"methods": {},
				"version": 1
			},
			"evm": {
				"assembly": "    /* \"First Task.sol\":63:3052  contract Example {... */\n  mstore(0x40, 0x80)\n    /* \"First Task.sol\":1048:1200  constructor(uint initial_value, string memory description) {... */\n  callvalue\n  dup1\n  iszero\n  tag_1\n  jumpi\n  0x00\n  dup1\n  revert\ntag_1:\n  pop\n  mload(0x40)\n  sub(codesize, bytecodeSize)\n  dup1\n  bytecodeSize\n  dup4\n  codecopy\n  dup2\n  add\n  0x40\n  dup2\n  swap1\n  mstore\n  tag_2\n  swap2\n  tag_3\n  jump\t// in\ntag_2:\n    /* \"First Task.sol\":1118:1123  owner */\n  0x00\n    /* \"First Task.sol\":1118:1136  owner = msg.sender */\n  dup1\n  sload\n  not(sub(shl(0xa0, 0x01), 0x01))\n  and\n    /* \"First Task.sol\":1126:1136  msg.sender */\n  caller\n    /* \"First Task.sol\":1118:1136  owner = msg.sender */\n  or\n  swap1\n  sstore\n    /* \"First Task.sol\":1157:1192  Counter(initial_value, description) */\n  0x40\n  dup1\n  mload\n  dup1\n  dup3\n  add\n  swap1\n  swap2\n  mstore\n  dup3\n  dup2\n  mstore\n  0x20\n  dup2\n  add\n  dup3\n  swap1\n  mstore\n    /* \"First Task.sol\":1118:1136  owner = msg.sender */\n  0x01\n    /* \"First Task.sol\":1147:1192  counter = Counter(initial_value, description) */\n  dup4\n  dup2\n  sstore\n  0x02\n  tag_6\n    /* \"First Task.sol\":1180:1191  description */\n  dup5\n    /* \"First Task.sol\":1147:1192  counter = Counter(initial_value, description) */\n  dup3\n  tag_7\n  jump\t// in\ntag_6:\n  pop\n  swap1\n  pop\n  pop\n    /* \"First Task.sol\":1048:1200  constructor(uint initial_value, string memory description) {... */\n  pop\n  pop\n    /* \"First Task.sol\":63:3052  contract Example {... */\n  jump(tag_14)\n    /* \"#utility.yul\":14:141   */\ntag_9:\n    /* \"#utility.yul\":75:85   */\n  0x4e487b71\n    /* \"#utility.yul\":70:73   */\n  0xe0\n    /* \"#utility.yul\":66:86   */\n  shl\n    /* \"#utility.yul\":63:64   */\n  0x00\n    /* \"#utility.yul\":56:87   */\n  mstore\n    /* \"#utility.yul\":106:110   */\n  0x41\n    /* \"#utility.yul\":103:104   */\n  0x04\n    /* \"#utility.yul\":96:111   */\n  mstore\n    /* \"#utility.yul\":130:134   */\n  0x24\n    /* \"#utility.yul\":127:128   */\n  0x00\n    /* \"#utility.yul\":120:135   */\n  revert\n    /* \"#utility.yul\":146:1249   */\ntag_3:\n    /* \"#utility.yul\":235:241   */\n  0x00\n    /* \"#utility.yul\":243:249   */\n  dup1\n    /* \"#utility.yul\":296:298   */\n  0x40\n    /* \"#utility.yul\":284:293   */\n  dup4\n    /* \"#utility.yul\":275:282   */\n  dup6\n    /* \"#utility.yul\":271:294   */\n  sub\n    /* \"#utility.yul\":267:299   */\n  slt\n    /* \"#utility.yul\":264:316   */\n  iszero\n  tag_17\n  jumpi\n    /* \"#utility.yul\":312:313   */\n  0x00\n    /* \"#utility.yul\":309:310   */\n  dup1\n    /* \"#utility.yul\":302:314   */\n  revert\n    /* \"#utility.yul\":264:316   */\ntag_17:\n    /* \"#utility.yul\":335:351   */\n  dup3\n  mload\n    /* \"#utility.yul\":370:372   */\n  0x20\n    /* \"#utility.yul\":401:419   */\n  dup1\n  dup6\n  add\n    /* \"#utility.yul\":395:420   */\n  mload\n    /* \"#utility.yul\":335:351   */\n  swap2\n  swap4\n  pop\n    /* \"#utility.yul\":370:372   */\n  swap1\n  sub(shl(0x40, 0x01), 0x01)\n    /* \"#utility.yul\":469:483   */\n  dup1\n  dup3\n  gt\n    /* \"#utility.yul\":466:500   */\n  iszero\n  tag_18\n  jumpi\n    /* \"#utility.yul\":496:497   */\n  0x00\n    /* \"#utility.yul\":493:494   */\n  dup1\n    /* \"#utility.yul\":486:498   */\n  revert\n    /* \"#utility.yul\":466:500   */\ntag_18:\n    /* \"#utility.yul\":534:540   */\n  dup2\n    /* \"#utility.yul\":523:532   */\n  dup7\n    /* \"#utility.yul\":519:541   */\n  add\n    /* \"#utility.yul\":509:541   */\n  swap2\n  pop\n    /* \"#utility.yul\":579:586   */\n  dup7\n    /* \"#utility.yul\":572:576   */\n  0x1f\n    /* \"#utility.yul\":568:570   */\n  dup4\n    /* \"#utility.yul\":564:577   */\n  add\n    /* \"#utility.yul\":560:587   */\n  slt\n    /* \"#utility.yul\":550:605   */\n  tag_19\n  jumpi\n    /* \"#utility.yul\":601:602   */\n  0x00\n    /* \"#utility.yul\":598:599   */\n  dup1\n    /* \"#utility.yul\":591:603   */\n  revert\n    /* \"#utility.yul\":550:605   */\ntag_19:\n    /* \"#utility.yul\":630:632   */\n  dup2\n    /* \"#utility.yul\":624:633   */\n  mload\n    /* \"#utility.yul\":652:654   */\n  dup2\n    /* \"#utility.yul\":648:650   */\n  dup2\n    /* \"#utility.yul\":645:655   */\n  gt\n    /* \"#utility.yul\":642:678   */\n  iszero\n  tag_21\n  jumpi\n    /* \"#utility.yul\":658:676   */\n  tag_21\n  tag_9\n  jump\t// in\ntag_21:\n    /* \"#utility.yul\":733:735   */\n  0x40\n    /* \"#utility.yul\":727:736   */\n  mload\n    /* \"#utility.yul\":701:703   */\n  0x1f\n    /* \"#utility.yul\":787:800   */\n  dup3\n  add\n  not(0x1f)\n    /* \"#utility.yul\":783:805   */\n  swap1\n  dup2\n  and\n    /* \"#utility.yul\":807:809   */\n  0x3f\n    /* \"#utility.yul\":779:810   */\n  add\n    /* \"#utility.yul\":775:815   */\n  and\n    /* \"#utility.yul\":763:816   */\n  dup2\n  add\n  swap1\n    /* \"#utility.yul\":831:849   */\n  dup4\n  dup3\n  gt\n    /* \"#utility.yul\":851:873   */\n  dup2\n  dup4\n  lt\n    /* \"#utility.yul\":828:874   */\n  or\n    /* \"#utility.yul\":825:897   */\n  iszero\n  tag_23\n  jumpi\n    /* \"#utility.yul\":877:895   */\n  tag_23\n  tag_9\n  jump\t// in\ntag_23:\n    /* \"#utility.yul\":917:927   */\n  dup2\n    /* \"#utility.yul\":913:915   */\n  0x40\n    /* \"#utility.yul\":906:928   */\n  mstore\n    /* \"#utility.yul\":952:954   */\n  dup3\n    /* \"#utility.yul\":944:950   */\n  dup2\n    /* \"#utility.yul\":937:955   */\n  mstore\n    /* \"#utility.yul\":992:999   */\n  dup10\n    /* \"#utility.yul\":987:989   */\n  dup7\n    /* \"#utility.yul\":982:984   */\n  dup5\n    /* \"#utility.yul\":978:980   */\n  dup8\n    /* \"#utility.yul\":974:985   */\n  add\n    /* \"#utility.yul\":970:990   */\n  add\n    /* \"#utility.yul\":967:1000   */\n  gt\n    /* \"#utility.yul\":964:1017   */\n  iszero\n  tag_24\n  jumpi\n    /* \"#utility.yul\":1013:1014   */\n  0x00\n    /* \"#utility.yul\":1010:1011   */\n  dup1\n    /* \"#utility.yul\":1003:1015   */\n  revert\n    /* \"#utility.yul\":964:1017   */\ntag_24:\n    /* \"#utility.yul\":1035:1036   */\n  0x00\n    /* \"#utility.yul\":1026:1036   */\n  swap4\n  pop\n    /* \"#utility.yul\":1045:1174   */\ntag_25:\n    /* \"#utility.yul\":1059:1061   */\n  dup3\n    /* \"#utility.yul\":1056:1057   */\n  dup5\n    /* \"#utility.yul\":1053:1062   */\n  lt\n    /* \"#utility.yul\":1045:1174   */\n  iszero\n  tag_27\n  jumpi\n    /* \"#utility.yul\":1147:1157   */\n  dup5\n  dup5\n  add\n    /* \"#utility.yul\":1143:1162   */\n  dup7\n  add\n    /* \"#utility.yul\":1137:1163   */\n  mload\n    /* \"#utility.yul\":1116:1130   */\n  dup2\n  dup6\n  add\n    /* \"#utility.yul\":1112:1135   */\n  dup8\n  add\n    /* \"#utility.yul\":1105:1164   */\n  mstore\n    /* \"#utility.yul\":1070:1080   */\n  swap3\n  dup6\n  add\n  swap3\n    /* \"#utility.yul\":1045:1174   */\n  jump(tag_25)\ntag_27:\n    /* \"#utility.yul\":1216:1217   */\n  0x00\n    /* \"#utility.yul\":1211:1213   */\n  dup7\n    /* \"#utility.yul\":1206:1208   */\n  dup5\n    /* \"#utility.yul\":1198:1204   */\n  dup4\n    /* \"#utility.yul\":1194:1209   */\n  add\n    /* \"#utility.yul\":1190:1214   */\n  add\n    /* \"#utility.yul\":1183:1218   */\n  mstore\n    /* \"#utility.yul\":1237:1243   */\n  dup1\n    /* \"#utility.yul\":1227:1243   */\n  swap7\n  pop\n  pop\n  pop\n  pop\n  pop\n  pop\n  pop\n    /* \"#utility.yul\":146:1249   */\n  swap3\n  pop\n  swap3\n  swap1\n  pop\n  jump\t// out\n    /* \"#utility.yul\":1254:1634   */\ntag_10:\n    /* \"#utility.yul\":1333:1334   */\n  0x01\n    /* \"#utility.yul\":1329:1341   */\n  dup2\n  dup2\n  shr\n  swap1\n    /* \"#utility.yul\":1376:1388   */\n  dup3\n  and\n  dup1\n    /* \"#utility.yul\":1397:1458   */\n  tag_29\n  jumpi\n    /* \"#utility.yul\":1451:1455   */\n  0x7f\n    /* \"#utility.yul\":1443:1449   */\n  dup3\n    /* \"#utility.yul\":1439:1456   */\n  and\n    /* \"#utility.yul\":1429:1456   */\n  swap2\n  pop\n    /* \"#utility.yul\":1397:1458   */\ntag_29:\n    /* \"#utility.yul\":1504:1506   */\n  0x20\n    /* \"#utility.yul\":1496:1502   */\n  dup3\n    /* \"#utility.yul\":1493:1507   */\n  lt\n    /* \"#utility.yul\":1473:1491   */\n  dup2\n    /* \"#utility.yul\":1470:1508   */\n  sub\n    /* \"#utility.yul\":1467:1628   */\n  tag_30\n  jumpi\n    /* \"#utility.yul\":1550:1560   */\n  0x4e487b71\n    /* \"#utility.yul\":1545:1548   */\n  0xe0\n    /* \"#utility.yul\":1541:1561   */\n  shl\n    /* \"#utility.yul\":1538:1539   */\n  0x00\n    /* \"#utility.yul\":1531:1562   */\n  mstore\n    /* \"#utility.yul\":1585:1589   */\n  0x22\n    /* \"#utility.yul\":1582:1583   */\n  0x04\n    /* \"#utility.yul\":1575:1590   */\n  mstore\n    /* \"#utility.yul\":1613:1617   */\n  0x24\n    /* \"#utility.yul\":1610:1611   */\n  0x00\n    /* \"#utility.yul\":1603:1618   */\n  revert\n    /* \"#utility.yul\":1467:1628   */\ntag_30:\n  pop\n    /* \"#utility.yul\":1254:1634   */\n  swap2\n  swap1\n  pop\n  jump\t// out\n    /* \"#utility.yul\":1765:2310   */\ntag_12:\n    /* \"#utility.yul\":1867:1869   */\n  0x1f\n    /* \"#utility.yul\":1862:1865   */\n  dup3\n    /* \"#utility.yul\":1859:1870   */\n  gt\n    /* \"#utility.yul\":1856:2304   */\n  iszero\n  tag_33\n  jumpi\n    /* \"#utility.yul\":1903:1904   */\n  0x00\n    /* \"#utility.yul\":1928:1933   */\n  dup2\n    /* \"#utility.yul\":1924:1926   */\n  dup2\n    /* \"#utility.yul\":1917:1934   */\n  mstore\n    /* \"#utility.yul\":1973:1977   */\n  0x20\n    /* \"#utility.yul\":1969:1971   */\n  dup2\n    /* \"#utility.yul\":1959:1978   */\n  keccak256\n    /* \"#utility.yul\":2043:2045   */\n  0x1f\n    /* \"#utility.yul\":2031:2041   */\n  dup6\n    /* \"#utility.yul\":2027:2046   */\n  add\n    /* \"#utility.yul\":2024:2025   */\n  0x05\n    /* \"#utility.yul\":2020:2047   */\n  shr\n    /* \"#utility.yul\":2014:2018   */\n  dup2\n    /* \"#utility.yul\":2010:2048   */\n  add\n    /* \"#utility.yul\":2079:2083   */\n  0x20\n    /* \"#utility.yul\":2067:2077   */\n  dup7\n    /* \"#utility.yul\":2064:2084   */\n  lt\n    /* \"#utility.yul\":2061:2108   */\n  iszero\n  tag_34\n  jumpi\n  pop\n    /* \"#utility.yul\":2102:2106   */\n  dup1\n    /* \"#utility.yul\":2061:2108   */\ntag_34:\n    /* \"#utility.yul\":2157:2159   */\n  0x1f\n    /* \"#utility.yul\":2152:2155   */\n  dup6\n    /* \"#utility.yul\":2148:2160   */\n  add\n    /* \"#utility.yul\":2145:2146   */\n  0x05\n    /* \"#utility.yul\":2141:2161   */\n  shr\n    /* \"#utility.yul\":2135:2139   */\n  dup3\n    /* \"#utility.yul\":2131:2162   */\n  add\n    /* \"#utility.yul\":2121:2162   */\n  swap2\n  pop\n    /* \"#utility.yul\":2212:2294   */\ntag_35:\n    /* \"#utility.yul\":2230:2232   */\n  dup2\n    /* \"#utility.yul\":2223:2228   */\n  dup2\n    /* \"#utility.yul\":2220:2233   */\n  lt\n    /* \"#utility.yul\":2212:2294   */\n  iszero\n  tag_37\n  jumpi\n    /* \"#utility.yul\":2275:2292   */\n  dup3\n  dup2\n  sstore\n    /* \"#utility.yul\":2256:2257   */\n  0x01\n    /* \"#utility.yul\":2245:2258   */\n  add\n    /* \"#utility.yul\":2212:2294   */\n  jump(tag_35)\ntag_37:\n    /* \"#utility.yul\":2216:2219   */\n  pop\n  pop\n  pop\n    /* \"#utility.yul\":1856:2304   */\ntag_33:\n    /* \"#utility.yul\":1765:2310   */\n  pop\n  pop\n  pop\n  jump\t// out\n    /* \"#utility.yul\":2486:3838   */\ntag_7:\n    /* \"#utility.yul\":2606:2616   */\n  dup2\n  mload\n  sub(shl(0x40, 0x01), 0x01)\n    /* \"#utility.yul\":2628:2658   */\n  dup2\n  gt\n    /* \"#utility.yul\":2625:2681   */\n  iszero\n  tag_41\n  jumpi\n    /* \"#utility.yul\":2661:2679   */\n  tag_41\n  tag_9\n  jump\t// in\ntag_41:\n    /* \"#utility.yul\":2690:2787   */\n  tag_42\n    /* \"#utility.yul\":2780:2786   */\n  dup2\n    /* \"#utility.yul\":2740:2778   */\n  tag_43\n    /* \"#utility.yul\":2772:2776   */\n  dup5\n    /* \"#utility.yul\":2766:2777   */\n  sload\n    /* \"#utility.yul\":2740:2778   */\n  tag_10\n  jump\t// in\ntag_43:\n    /* \"#utility.yul\":2734:2738   */\n  dup5\n    /* \"#utility.yul\":2690:2787   */\n  tag_12\n  jump\t// in\ntag_42:\n    /* \"#utility.yul\":2842:2846   */\n  0x20\n  dup1\n    /* \"#utility.yul\":2906:2908   */\n  0x1f\n    /* \"#utility.yul\":2895:2909   */\n  dup4\n  gt\n    /* \"#utility.yul\":2923:2924   */\n  0x01\n    /* \"#utility.yul\":2918:3581   */\n  dup2\n  eq\n  tag_45\n  jumpi\n    /* \"#utility.yul\":3625:3626   */\n  0x00\n    /* \"#utility.yul\":3642:3648   */\n  dup5\n    /* \"#utility.yul\":3639:3728   */\n  iszero\n  tag_46\n  jumpi\n  pop\n    /* \"#utility.yul\":3694:3713   */\n  dup6\n  dup4\n  add\n    /* \"#utility.yul\":3688:3714   */\n  mload\n    /* \"#utility.yul\":3639:3728   */\ntag_46:\n  not(0x00)\n    /* \"#utility.yul\":2443:2444   */\n  0x03\n    /* \"#utility.yul\":2439:2450   */\n  dup7\n  swap1\n  shl\n    /* \"#utility.yul\":2435:2459   */\n  shr\n    /* \"#utility.yul\":2431:2460   */\n  not\n    /* \"#utility.yul\":2421:2461   */\n  and\n    /* \"#utility.yul\":2467:2468   */\n  0x01\n    /* \"#utility.yul\":2463:2474   */\n  dup6\n  swap1\n  shl\n    /* \"#utility.yul\":2418:2475   */\n  or\n    /* \"#utility.yul\":3741:3822   */\n  dup6\n  sstore\n    /* \"#utility.yul\":2888:3832   */\n  jump(tag_37)\n    /* \"#utility.yul\":2918:3581   */\ntag_45:\n    /* \"#utility.yul\":1712:1713   */\n  0x00\n    /* \"#utility.yul\":1705:1719   */\n  dup6\n  dup2\n  mstore\n    /* \"#utility.yul\":1749:1753   */\n  0x20\n    /* \"#utility.yul\":1736:1754   */\n  dup2\n  keccak256\n  not(0x1f)\n    /* \"#utility.yul\":2954:2974   */\n  dup7\n  and\n  swap2\n    /* \"#utility.yul\":3072:3308   */\ntag_49:\n    /* \"#utility.yul\":3086:3093   */\n  dup3\n    /* \"#utility.yul\":3083:3084   */\n  dup2\n    /* \"#utility.yul\":3080:3094   */\n  lt\n    /* \"#utility.yul\":3072:3308   */\n  iszero\n  tag_51\n  jumpi\n    /* \"#utility.yul\":3175:3194   */\n  dup9\n  dup7\n  add\n    /* \"#utility.yul\":3169:3195   */\n  mload\n    /* \"#utility.yul\":3154:3196   */\n  dup3\n  sstore\n    /* \"#utility.yul\":3267:3294   */\n  swap5\n  dup5\n  add\n  swap5\n    /* \"#utility.yul\":3235:3236   */\n  0x01\n    /* \"#utility.yul\":3223:3237   */\n  swap1\n  swap2\n  add\n  swap1\n    /* \"#utility.yul\":3102:3121   */\n  dup5\n  add\n    /* \"#utility.yul\":3072:3308   */\n  jump(tag_49)\ntag_51:\n    /* \"#utility.yul\":3076:3079   */\n  pop\n    /* \"#utility.yul\":3336:3342   */\n  dup6\n    /* \"#utility.yul\":3327:3334   */\n  dup3\n    /* \"#utility.yul\":3324:3343   */\n  lt\n    /* \"#utility.yul\":3321:3522   */\n  iszero\n  tag_52\n  jumpi\n    /* \"#utility.yul\":3397:3416   */\n  dup8\n  dup6\n  add\n    /* \"#utility.yul\":3391:3417   */\n  mload\n  not(0x00)\n    /* \"#utility.yul\":3480:3481   */\n  0x03\n    /* \"#utility.yul\":3476:3490   */\n  dup9\n  swap1\n  shl\n    /* \"#utility.yul\":3492:3495   */\n  0xf8\n    /* \"#utility.yul\":3472:3496   */\n  and\n    /* \"#utility.yul\":3468:3505   */\n  shr\n    /* \"#utility.yul\":3464:3506   */\n  not\n    /* \"#utility.yul\":3449:3507   */\n  and\n    /* \"#utility.yul\":3434:3508   */\n  dup2\n  sstore\n    /* \"#utility.yul\":3321:3522   */\ntag_52:\n  pop\n  pop\n  pop\n  pop\n  pop\n    /* \"#utility.yul\":3568:3569   */\n  0x01\n    /* \"#utility.yul\":3552:3566   */\n  swap1\n  dup2\n  shl\n    /* \"#utility.yul\":3548:3570   */\n  add\n    /* \"#utility.yul\":3535:3571   */\n  swap1\n  sstore\n  pop\n    /* \"#utility.yul\":2486:3838   */\n  jump\t// out\ntag_14:\n    /* \"First Task.sol\":63:3052  contract Example {... */\n  dataSize(sub_0)\n  dup1\n  dataOffset(sub_0)\n  0x00\n  codecopy\n  0x00\n  return\nstop\n\nsub_0: assembly {\n        /* \"First Task.sol\":63:3052  contract Example {... */\n      mstore(0x40, 0x80)\n      callvalue\n      dup1\n      iszero\n      tag_1\n      jumpi\n      0x00\n      dup1\n      revert\n    tag_1:\n      pop\n      jumpi(tag_2, lt(calldatasize, 0x04))\n      shr(0xe0, calldataload(0x00))\n      dup1\n      0x24b1cc13\n      eq\n      tag_3\n      jumpi\n      dup1\n      0x82b15f37\n      eq\n      tag_4\n      jumpi\n      dup1\n      0xb4c89bea\n      eq\n      tag_5\n      jumpi\n      dup1\n      0xcfcdcd72\n      eq\n      tag_6\n      jumpi\n    tag_2:\n      0x00\n      dup1\n      revert\n        /* \"First Task.sol\":2410:2507  function get_counter_value() external view returns(uint) {... */\n    tag_3:\n        /* \"First Task.sol\":2485:2492  counter */\n      0x01\n        /* \"First Task.sol\":2485:2499  counter.number */\n      sload\n        /* \"First Task.sol\":2410:2507  function get_counter_value() external view returns(uint) {... */\n      mload(0x40)\n        /* \"#utility.yul\":160:185   */\n      swap1\n      dup2\n      mstore\n        /* \"#utility.yul\":148:150   */\n      0x20\n        /* \"#utility.yul\":133:151   */\n      add\n        /* \"First Task.sol\":2410:2507  function get_counter_value() external view returns(uint) {... */\n    tag_9:\n      mload(0x40)\n      dup1\n      swap2\n      sub\n      swap1\n      return\n        /* \"First Task.sol\":1706:1792  function increment_counter() external onlyOwner {... */\n    tag_4:\n      tag_11\n      tag_12\n      jump\t// in\n    tag_11:\n      stop\n        /* \"First Task.sol\":1908:1994  function decrement_counter() external onlyOwner {... */\n    tag_5:\n      tag_11\n      tag_14\n      jump\t// in\n        /* \"First Task.sol\":2932:3049  function get_counter_description() external view returns(string memory) {... */\n    tag_6:\n      tag_15\n      tag_16\n      jump\t// in\n    tag_15:\n      mload(0x40)\n      tag_9\n      swap2\n      swap1\n      tag_18\n      jump\t// in\n        /* \"First Task.sol\":1706:1792  function increment_counter() external onlyOwner {... */\n    tag_12:\n        /* \"First Task.sol\":735:740  owner */\n      and(sub(shl(0xa0, 0x01), 0x01), sload(0x00))\n        /* \"First Task.sol\":721:731  msg.sender */\n      caller\n        /* \"First Task.sol\":721:740  msg.sender == owner */\n      eq\n        /* \"First Task.sol\":713:798  require(msg.sender == owner, \"Only the owner can increment or decrement the counter\") */\n      tag_21\n      jumpi\n      mload(0x40)\n      shl(0xe5, 0x461bcd)\n      dup2\n      mstore\n      0x04\n      add\n      tag_22\n      swap1\n      tag_23\n      jump\t// in\n    tag_22:\n      mload(0x40)\n      dup1\n      swap2\n      sub\n      swap1\n      revert\n    tag_21:\n        /* \"First Task.sol\":1783:1784  1 */\n      0x01\n        /* \"First Task.sol\":1765:1772  counter */\n      dup1\n        /* \"First Task.sol\":1765:1779  counter.number */\n      0x00\n      add\n      0x00\n        /* \"First Task.sol\":1765:1784  counter.number += 1 */\n      dup3\n      dup3\n      sload\n      tag_25\n      swap2\n      swap1\n      tag_26\n      jump\t// in\n    tag_25:\n      swap1\n      swap2\n      sstore\n      pop\n      pop\n        /* \"First Task.sol\":1706:1792  function increment_counter() external onlyOwner {... */\n      jump\t// out\n        /* \"First Task.sol\":1908:1994  function decrement_counter() external onlyOwner {... */\n    tag_14:\n        /* \"First Task.sol\":735:740  owner */\n      and(sub(shl(0xa0, 0x01), 0x01), sload(0x00))\n        /* \"First Task.sol\":721:731  msg.sender */\n      caller\n        /* \"First Task.sol\":721:740  msg.sender == owner */\n      eq\n        /* \"First Task.sol\":713:798  require(msg.sender == owner, \"Only the owner can increment or decrement the counter\") */\n      tag_28\n      jumpi\n      mload(0x40)\n      shl(0xe5, 0x461bcd)\n      dup2\n      mstore\n      0x04\n      add\n      tag_22\n      swap1\n      tag_23\n      jump\t// in\n    tag_28:\n        /* \"First Task.sol\":1985:1986  1 */\n      0x01\n        /* \"First Task.sol\":1967:1974  counter */\n      dup1\n        /* \"First Task.sol\":1967:1981  counter.number */\n      0x00\n      add\n      0x00\n        /* \"First Task.sol\":1967:1986  counter.number -= 1 */\n      dup3\n      dup3\n      sload\n      tag_25\n      swap2\n      swap1\n      tag_32\n      jump\t// in\n        /* \"First Task.sol\":2932:3049  function get_counter_description() external view returns(string memory) {... */\n    tag_16:\n        /* \"First Task.sol\":2989:3002  string memory */\n      0x60\n        /* \"First Task.sol\":3022:3029  counter */\n      0x01\n        /* \"First Task.sol\":3022:3041  counter.description */\n      dup1\n      add\n        /* \"First Task.sol\":3015:3041  return counter.description */\n      dup1\n      sload\n      tag_34\n      swap1\n      tag_35\n      jump\t// in\n    tag_34:\n      dup1\n      0x1f\n      add\n      0x20\n      dup1\n      swap2\n      div\n      mul\n      0x20\n      add\n      mload(0x40)\n      swap1\n      dup2\n      add\n      0x40\n      mstore\n      dup1\n      swap3\n      swap2\n      swap1\n      dup2\n      dup2\n      mstore\n      0x20\n      add\n      dup3\n      dup1\n      sload\n      tag_36\n      swap1\n      tag_35\n      jump\t// in\n    tag_36:\n      dup1\n      iszero\n      tag_37\n      jumpi\n      dup1\n      0x1f\n      lt\n      tag_38\n      jumpi\n      0x0100\n      dup1\n      dup4\n      sload\n      div\n      mul\n      dup4\n      mstore\n      swap2\n      0x20\n      add\n      swap2\n      jump(tag_37)\n    tag_38:\n      dup3\n      add\n      swap2\n      swap1\n      0x00\n      mstore\n      keccak256(0x00, 0x20)\n      swap1\n    tag_39:\n      dup2\n      sload\n      dup2\n      mstore\n      swap1\n      0x01\n      add\n      swap1\n      0x20\n      add\n      dup1\n      dup4\n      gt\n      tag_39\n      jumpi\n      dup3\n      swap1\n      sub\n      0x1f\n      and\n      dup3\n      add\n      swap2\n    tag_37:\n      pop\n      pop\n      pop\n      pop\n      pop\n      swap1\n      pop\n        /* \"First Task.sol\":2932:3049  function get_counter_description() external view returns(string memory) {... */\n      swap1\n      jump\t// out\n        /* \"#utility.yul\":196:744   */\n    tag_18:\n        /* \"#utility.yul\":308:312   */\n      0x00\n        /* \"#utility.yul\":337:339   */\n      0x20\n        /* \"#utility.yul\":366:368   */\n      dup1\n        /* \"#utility.yul\":355:364   */\n      dup4\n        /* \"#utility.yul\":348:369   */\n      mstore\n        /* \"#utility.yul\":398:404   */\n      dup4\n        /* \"#utility.yul\":392:405   */\n      mload\n        /* \"#utility.yul\":441:447   */\n      dup1\n        /* \"#utility.yul\":436:438   */\n      dup3\n        /* \"#utility.yul\":425:434   */\n      dup6\n        /* \"#utility.yul\":421:439   */\n      add\n        /* \"#utility.yul\":414:448   */\n      mstore\n        /* \"#utility.yul\":466:467   */\n      0x00\n        /* \"#utility.yul\":476:616   */\n    tag_44:\n        /* \"#utility.yul\":490:496   */\n      dup2\n        /* \"#utility.yul\":487:488   */\n      dup2\n        /* \"#utility.yul\":484:497   */\n      lt\n        /* \"#utility.yul\":476:616   */\n      iszero\n      tag_46\n      jumpi\n        /* \"#utility.yul\":585:599   */\n      dup6\n      dup2\n      add\n        /* \"#utility.yul\":581:604   */\n      dup4\n      add\n        /* \"#utility.yul\":575:605   */\n      mload\n        /* \"#utility.yul\":551:568   */\n      dup6\n      dup3\n      add\n        /* \"#utility.yul\":570:572   */\n      0x40\n        /* \"#utility.yul\":547:573   */\n      add\n        /* \"#utility.yul\":540:606   */\n      mstore\n        /* \"#utility.yul\":505:515   */\n      dup3\n      add\n        /* \"#utility.yul\":476:616   */\n      jump(tag_44)\n    tag_46:\n        /* \"#utility.yul\":480:483   */\n      pop\n        /* \"#utility.yul\":665:666   */\n      0x00\n        /* \"#utility.yul\":660:662   */\n      0x40\n        /* \"#utility.yul\":651:657   */\n      dup3\n        /* \"#utility.yul\":640:649   */\n      dup7\n        /* \"#utility.yul\":636:658   */\n      add\n        /* \"#utility.yul\":632:663   */\n      add\n        /* \"#utility.yul\":625:667   */\n      mstore\n        /* \"#utility.yul\":735:737   */\n      0x40\n        /* \"#utility.yul\":728:730   */\n      0x1f\n        /* \"#utility.yul\":724:731   */\n      not\n        /* \"#utility.yul\":719:721   */\n      0x1f\n        /* \"#utility.yul\":711:717   */\n      dup4\n        /* \"#utility.yul\":707:722   */\n      add\n        /* \"#utility.yul\":703:732   */\n      and\n        /* \"#utility.yul\":692:701   */\n      dup6\n        /* \"#utility.yul\":688:733   */\n      add\n        /* \"#utility.yul\":684:738   */\n      add\n        /* \"#utility.yul\":676:738   */\n      swap3\n      pop\n      pop\n      pop\n        /* \"#utility.yul\":196:744   */\n      swap3\n      swap2\n      pop\n      pop\n      jump\t// out\n        /* \"#utility.yul\":749:1166   */\n    tag_23:\n        /* \"#utility.yul\":951:953   */\n      0x20\n        /* \"#utility.yul\":933:954   */\n      dup1\n      dup3\n      mstore\n        /* \"#utility.yul\":990:992   */\n      0x35\n        /* \"#utility.yul\":970:988   */\n      swap1\n      dup3\n      add\n        /* \"#utility.yul\":963:993   */\n      mstore\n        /* \"#utility.yul\":1029:1063   */\n      0x4f6e6c7920746865206f776e65722063616e20696e6372656d656e74206f7220\n        /* \"#utility.yul\":1024:1026   */\n      0x40\n        /* \"#utility.yul\":1009:1027   */\n      dup3\n      add\n        /* \"#utility.yul\":1002:1064   */\n      mstore\n      shl(0x59, 0x3232b1b932b6b2b73a103a34329031b7bab73a32b9)\n        /* \"#utility.yul\":1095:1097   */\n      0x60\n        /* \"#utility.yul\":1080:1098   */\n      dup3\n      add\n        /* \"#utility.yul\":1073:1124   */\n      mstore\n        /* \"#utility.yul\":1156:1159   */\n      0x80\n        /* \"#utility.yul\":1141:1160   */\n      add\n      swap1\n        /* \"#utility.yul\":749:1166   */\n      jump\t// out\n        /* \"#utility.yul\":1171:1298   */\n    tag_40:\n        /* \"#utility.yul\":1232:1242   */\n      0x4e487b71\n        /* \"#utility.yul\":1227:1230   */\n      0xe0\n        /* \"#utility.yul\":1223:1243   */\n      shl\n        /* \"#utility.yul\":1220:1221   */\n      0x00\n        /* \"#utility.yul\":1213:1244   */\n      mstore\n        /* \"#utility.yul\":1263:1267   */\n      0x11\n        /* \"#utility.yul\":1260:1261   */\n      0x04\n        /* \"#utility.yul\":1253:1268   */\n      mstore\n        /* \"#utility.yul\":1287:1291   */\n      0x24\n        /* \"#utility.yul\":1284:1285   */\n      0x00\n        /* \"#utility.yul\":1277:1292   */\n      revert\n        /* \"#utility.yul\":1303:1428   */\n    tag_26:\n        /* \"#utility.yul\":1368:1377   */\n      dup1\n      dup3\n      add\n        /* \"#utility.yul\":1389:1399   */\n      dup1\n      dup3\n      gt\n        /* \"#utility.yul\":1386:1422   */\n      iszero\n      tag_51\n      jumpi\n        /* \"#utility.yul\":1402:1420   */\n      tag_51\n      tag_40\n      jump\t// in\n    tag_51:\n        /* \"#utility.yul\":1303:1428   */\n      swap3\n      swap2\n      pop\n      pop\n      jump\t// out\n        /* \"#utility.yul\":1433:1561   */\n    tag_32:\n        /* \"#utility.yul\":1500:1509   */\n      dup2\n      dup2\n      sub\n        /* \"#utility.yul\":1521:1532   */\n      dup2\n      dup2\n      gt\n        /* \"#utility.yul\":1518:1555   */\n      iszero\n      tag_51\n      jumpi\n        /* \"#utility.yul\":1535:1553   */\n      tag_51\n      tag_40\n      jump\t// in\n        /* \"#utility.yul\":1566:1946   */\n    tag_35:\n        /* \"#utility.yul\":1645:1646   */\n      0x01\n        /* \"#utility.yul\":1641:1653   */\n      dup2\n      dup2\n      shr\n      swap1\n        /* \"#utility.yul\":1688:1700   */\n      dup3\n      and\n      dup1\n        /* \"#utility.yul\":1709:1770   */\n      tag_56\n      jumpi\n        /* \"#utility.yul\":1763:1767   */\n      0x7f\n        /* \"#utility.yul\":1755:1761   */\n      dup3\n        /* \"#utility.yul\":1751:1768   */\n      and\n        /* \"#utility.yul\":1741:1768   */\n      swap2\n      pop\n        /* \"#utility.yul\":1709:1770   */\n    tag_56:\n        /* \"#utility.yul\":1816:1818   */\n      0x20\n        /* \"#utility.yul\":1808:1814   */\n      dup3\n        /* \"#utility.yul\":1805:1819   */\n      lt\n        /* \"#utility.yul\":1785:1803   */\n      dup2\n        /* \"#utility.yul\":1782:1820   */\n      sub\n        /* \"#utility.yul\":1779:1940   */\n      tag_57\n      jumpi\n        /* \"#utility.yul\":1862:1872   */\n      0x4e487b71\n        /* \"#utility.yul\":1857:1860   */\n      0xe0\n        /* \"#utility.yul\":1853:1873   */\n      shl\n        /* \"#utility.yul\":1850:1851   */\n      0x00\n        /* \"#utility.yul\":1843:1874   */\n      mstore\n        /* \"#utility.yul\":1897:1901   */\n      0x22\n        /* \"#utility.yul\":1894:1895   */\n      0x04\n        /* \"#utility.yul\":1887:1902   */\n      mstore\n        /* \"#utility.yul\":1925:1929   */\n      0x24\n        /* \"#utility.yul\":1922:1923   */\n      0x00\n        /* \"#utility.yul\":1915:1930   */\n      revert\n        /* \"#utility.yul\":1779:1940   */\n    tag_57:\n      pop\n        /* \"#utility.yul\":1566:1946   */\n      swap2\n      swap1\n      pop\n      jump\t// out\n\n    auxdata: 0xa264697066735822122029d07affd656a3c177ef1eb35624627f677d069244af809a8eaae37d0fe0abbb64736f6c63430008120033\n}\n",
				"bytecode": {
					"linkReferences": {},
					"object": "608060405234801561001057600080fd5b506040516105b73803806105b783398101604081905261002f91610087565b600080546001600160a01b0319163317905560408051808201909152828152602081018290526001838155600261006684826101e4565b5090505050506102a3565b634e487b7160e01b600052604160045260246000fd5b6000806040838503121561009a57600080fd5b8251602080850151919350906001600160401b03808211156100bb57600080fd5b818601915086601f8301126100cf57600080fd5b8151818111156100e1576100e1610071565b604051601f8201601f19908116603f0116810190838211818310171561010957610109610071565b81604052828152898684870101111561012157600080fd5b600093505b828410156101435784840186015181850187015292850192610126565b60008684830101528096505050505050509250929050565b600181811c9082168061016f57607f821691505b60208210810361018f57634e487b7160e01b600052602260045260246000fd5b50919050565b601f8211156101df57600081815260208120601f850160051c810160208610156101bc5750805b601f850160051c820191505b818110156101db578281556001016101c8565b5050505b505050565b81516001600160401b038111156101fd576101fd610071565b6102118161020b845461015b565b84610195565b602080601f831160018114610246576000841561022e5750858301515b600019600386901b1c1916600185901b1785556101db565b600085815260208120601f198616915b8281101561027557888601518255948401946001909101908401610256565b50858210156102935787850151600019600388901b60f8161c191681555b5050505050600190811b01905550565b610305806102b26000396000f3fe608060405234801561001057600080fd5b506004361061004c5760003560e01c806324b1cc131461005157806382b15f3714610067578063b4c89bea14610071578063cfcdcd7214610079575b600080fd5b6001546040519081526020015b60405180910390f35b61006f61008e565b005b61006f6100dd565b61008161011c565b60405161005e91906101b0565b6000546001600160a01b031633146100c15760405162461bcd60e51b81526004016100b8906101fe565b60405180910390fd5b60018060000160008282546100d69190610269565b9091555050565b6000546001600160a01b031633146101075760405162461bcd60e51b81526004016100b8906101fe565b60018060000160008282546100d69190610282565b606060018001805461012d90610295565b80601f016020809104026020016040519081016040528092919081815260200182805461015990610295565b80156101a65780601f1061017b576101008083540402835291602001916101a6565b820191906000526020600020905b81548152906001019060200180831161018957829003601f168201915b5050505050905090565b600060208083528351808285015260005b818110156101dd578581018301518582016040015282016101c1565b506000604082860101526040601f19601f8301168501019250505092915050565b60208082526035908201527f4f6e6c7920746865206f776e65722063616e20696e6372656d656e74206f72206040820152743232b1b932b6b2b73a103a34329031b7bab73a32b960591b606082015260800190565b634e487b7160e01b600052601160045260246000fd5b8082018082111561027c5761027c610253565b92915050565b8181038181111561027c5761027c610253565b600181811c908216806102a957607f821691505b6020821081036102c957634e487b7160e01b600052602260045260246000fd5b5091905056fea264697066735822122029d07affd656a3c177ef1eb35624627f677d069244af809a8eaae37d0fe0abbb64736f6c63430008120033",
					"opcodes": "PUSH1 0x80 PUSH1 0x40 MSTORE CALLVALUE DUP1 ISZERO PUSH2 0x10 JUMPI PUSH1 0x0 DUP1 REVERT JUMPDEST POP PUSH1 0x40 MLOAD PUSH2 0x5B7 CODESIZE SUB DUP1 PUSH2 0x5B7 DUP4 CODECOPY DUP2 ADD PUSH1 0x40 DUP2 SWAP1 MSTORE PUSH2 0x2F SWAP2 PUSH2 0x87 JUMP JUMPDEST PUSH1 0x0 DUP1 SLOAD PUSH1 0x1 PUSH1 0x1 PUSH1 0xA0 SHL SUB NOT AND CALLER OR SWAP1 SSTORE PUSH1 0x40 DUP1 MLOAD DUP1 DUP3 ADD SWAP1 SWAP2 MSTORE DUP3 DUP2 MSTORE PUSH1 0x20 DUP2 ADD DUP3 SWAP1 MSTORE PUSH1 0x1 DUP4 DUP2 SSTORE PUSH1 0x2 PUSH2 0x66 DUP5 DUP3 PUSH2 0x1E4 JUMP JUMPDEST POP SWAP1 POP POP POP POP PUSH2 0x2A3 JUMP JUMPDEST PUSH4 0x4E487B71 PUSH1 0xE0 SHL PUSH1 0x0 MSTORE PUSH1 0x41 PUSH1 0x4 MSTORE PUSH1 0x24 PUSH1 0x0 REVERT JUMPDEST PUSH1 0x0 DUP1 PUSH1 0x40 DUP4 DUP6 SUB SLT ISZERO PUSH2 0x9A JUMPI PUSH1 0x0 DUP1 REVERT JUMPDEST DUP3 MLOAD PUSH1 0x20 DUP1 DUP6 ADD MLOAD SWAP2 SWAP4 POP SWAP1 PUSH1 0x1 PUSH1 0x1 PUSH1 0x40 SHL SUB DUP1 DUP3 GT ISZERO PUSH2 0xBB JUMPI PUSH1 0x0 DUP1 REVERT JUMPDEST DUP2 DUP7 ADD SWAP2 POP DUP7 PUSH1 0x1F DUP4 ADD SLT PUSH2 0xCF JUMPI PUSH1 0x0 DUP1 REVERT JUMPDEST DUP2 MLOAD DUP2 DUP2 GT ISZERO PUSH2 0xE1 JUMPI PUSH2 0xE1 PUSH2 0x71 JUMP JUMPDEST PUSH1 0x40 MLOAD PUSH1 0x1F DUP3 ADD PUSH1 0x1F NOT SWAP1 DUP2 AND PUSH1 0x3F ADD AND DUP2 ADD SWAP1 DUP4 DUP3 GT DUP2 DUP4 LT OR ISZERO PUSH2 0x109 JUMPI PUSH2 0x109 PUSH2 0x71 JUMP JUMPDEST DUP2 PUSH1 0x40 MSTORE DUP3 DUP2 MSTORE DUP10 DUP7 DUP5 DUP8 ADD ADD GT ISZERO PUSH2 0x121 JUMPI PUSH1 0x0 DUP1 REVERT JUMPDEST PUSH1 0x0 SWAP4 POP JUMPDEST DUP3 DUP5 LT ISZERO PUSH2 0x143 JUMPI DUP5 DUP5 ADD DUP7 ADD MLOAD DUP2 DUP6 ADD DUP8 ADD MSTORE SWAP3 DUP6 ADD SWAP3 PUSH2 0x126 JUMP JUMPDEST PUSH1 0x0 DUP7 DUP5 DUP4 ADD ADD MSTORE DUP1 SWAP7 POP POP POP POP POP POP POP SWAP3 POP SWAP3 SWAP1 POP JUMP JUMPDEST PUSH1 0x1 DUP2 DUP2 SHR SWAP1 DUP3 AND DUP1 PUSH2 0x16F JUMPI PUSH1 0x7F DUP3 AND SWAP2 POP JUMPDEST PUSH1 0x20 DUP3 LT DUP2 SUB PUSH2 0x18F JUMPI PUSH4 0x4E487B71 PUSH1 0xE0 SHL PUSH1 0x0 MSTORE PUSH1 0x22 PUSH1 0x4 MSTORE PUSH1 0x24 PUSH1 0x0 REVERT JUMPDEST POP SWAP2 SWAP1 POP JUMP JUMPDEST PUSH1 0x1F DUP3 GT ISZERO PUSH2 0x1DF JUMPI PUSH1 0x0 DUP2 DUP2 MSTORE PUSH1 0x20 DUP2 KECCAK256 PUSH1 0x1F DUP6 ADD PUSH1 0x5 SHR DUP2 ADD PUSH1 0x20 DUP7 LT ISZERO PUSH2 0x1BC JUMPI POP DUP1 JUMPDEST PUSH1 0x1F DUP6 ADD PUSH1 0x5 SHR DUP3 ADD SWAP2 POP JUMPDEST DUP2 DUP2 LT ISZERO PUSH2 0x1DB JUMPI DUP3 DUP2 SSTORE PUSH1 0x1 ADD PUSH2 0x1C8 JUMP JUMPDEST POP POP POP JUMPDEST POP POP POP JUMP JUMPDEST DUP2 MLOAD PUSH1 0x1 PUSH1 0x1 PUSH1 0x40 SHL SUB DUP2 GT ISZERO PUSH2 0x1FD JUMPI PUSH2 0x1FD PUSH2 0x71 JUMP JUMPDEST PUSH2 0x211 DUP2 PUSH2 0x20B DUP5 SLOAD PUSH2 0x15B JUMP JUMPDEST DUP5 PUSH2 0x195 JUMP JUMPDEST PUSH1 0x20 DUP1 PUSH1 0x1F DUP4 GT PUSH1 0x1 DUP2 EQ PUSH2 0x246 JUMPI PUSH1 0x0 DUP5 ISZERO PUSH2 0x22E JUMPI POP DUP6 DUP4 ADD MLOAD JUMPDEST PUSH1 0x0 NOT PUSH1 0x3 DUP7 SWAP1 SHL SHR NOT AND PUSH1 0x1 DUP6 SWAP1 SHL OR DUP6 SSTORE PUSH2 0x1DB JUMP JUMPDEST PUSH1 0x0 DUP6 DUP2 MSTORE PUSH1 0x20 DUP2 KECCAK256 PUSH1 0x1F NOT DUP7 AND SWAP2 JUMPDEST DUP3 DUP2 LT ISZERO PUSH2 0x275 JUMPI DUP9 DUP7 ADD MLOAD DUP3 SSTORE SWAP5 DUP5 ADD SWAP5 PUSH1 0x1 SWAP1 SWAP2 ADD SWAP1 DUP5 ADD PUSH2 0x256 JUMP JUMPDEST POP DUP6 DUP3 LT ISZERO PUSH2 0x293 JUMPI DUP8 DUP6 ADD MLOAD PUSH1 0x0 NOT PUSH1 0x3 DUP9 SWAP1 SHL PUSH1 0xF8 AND SHR NOT AND DUP2 SSTORE JUMPDEST POP POP POP POP POP PUSH1 0x1 SWAP1 DUP2 SHL ADD SWAP1 SSTORE POP JUMP JUMPDEST PUSH2 0x305 DUP1 PUSH2 0x2B2 PUSH1 0x0 CODECOPY PUSH1 0x0 RETURN INVALID PUSH1 0x80 PUSH1 0x40 MSTORE CALLVALUE DUP1 ISZERO PUSH2 0x10 JUMPI PUSH1 0x0 DUP1 REVERT JUMPDEST POP PUSH1 0x4 CALLDATASIZE LT PUSH2 0x4C JUMPI PUSH1 0x0 CALLDATALOAD PUSH1 0xE0 SHR DUP1 PUSH4 0x24B1CC13 EQ PUSH2 0x51 JUMPI DUP1 PUSH4 0x82B15F37 EQ PUSH2 0x67 JUMPI DUP1 PUSH4 0xB4C89BEA EQ PUSH2 0x71 JUMPI DUP1 PUSH4 0xCFCDCD72 EQ PUSH2 0x79 JUMPI JUMPDEST PUSH1 0x0 DUP1 REVERT JUMPDEST PUSH1 0x1 SLOAD PUSH1 0x40 MLOAD SWAP1 DUP2 MSTORE PUSH1 0x20 ADD JUMPDEST PUSH1 0x40 MLOAD DUP1 SWAP2 SUB SWAP1 RETURN JUMPDEST PUSH2 0x6F PUSH2 0x8E JUMP JUMPDEST STOP JUMPDEST PUSH2 0x6F PUSH2 0xDD JUMP JUMPDEST PUSH2 0x81 PUSH2 0x11C JUMP JUMPDEST PUSH1 0x40 MLOAD PUSH2 0x5E SWAP2 SWAP1 PUSH2 0x1B0 JUMP JUMPDEST PUSH1 0x0 SLOAD PUSH1 0x1 PUSH1 0x1 PUSH1 0xA0 SHL SUB AND CALLER EQ PUSH2 0xC1 JUMPI PUSH1 0x40 MLOAD PUSH3 0x461BCD PUSH1 0xE5 SHL DUP2 MSTORE PUSH1 0x4 ADD PUSH2 0xB8 SWAP1 PUSH2 0x1FE JUMP JUMPDEST PUSH1 0x40 MLOAD DUP1 SWAP2 SUB SWAP1 REVERT JUMPDEST PUSH1 0x1 DUP1 PUSH1 0x0 ADD PUSH1 0x0 DUP3 DUP3 SLOAD PUSH2 0xD6 SWAP2 SWAP1 PUSH2 0x269 JUMP JUMPDEST SWAP1 SWAP2 SSTORE POP POP JUMP JUMPDEST PUSH1 0x0 SLOAD PUSH1 0x1 PUSH1 0x1 PUSH1 0xA0 SHL SUB AND CALLER EQ PUSH2 0x107 JUMPI PUSH1 0x40 MLOAD PUSH3 0x461BCD PUSH1 0xE5 SHL DUP2 MSTORE PUSH1 0x4 ADD PUSH2 0xB8 SWAP1 PUSH2 0x1FE JUMP JUMPDEST PUSH1 0x1 DUP1 PUSH1 0x0 ADD PUSH1 0x0 DUP3 DUP3 SLOAD PUSH2 0xD6 SWAP2 SWAP1 PUSH2 0x282 JUMP JUMPDEST PUSH1 0x60 PUSH1 0x1 DUP1 ADD DUP1 SLOAD PUSH2 0x12D SWAP1 PUSH2 0x295 JUMP JUMPDEST DUP1 PUSH1 0x1F ADD PUSH1 0x20 DUP1 SWAP2 DIV MUL PUSH1 0x20 ADD PUSH1 0x40 MLOAD SWAP1 DUP2 ADD PUSH1 0x40 MSTORE DUP1 SWAP3 SWAP2 SWAP1 DUP2 DUP2 MSTORE PUSH1 0x20 ADD DUP3 DUP1 SLOAD PUSH2 0x159 SWAP1 PUSH2 0x295 JUMP JUMPDEST DUP1 ISZERO PUSH2 0x1A6 JUMPI DUP1 PUSH1 0x1F LT PUSH2 0x17B JUMPI PUSH2 0x100 DUP1 DUP4 SLOAD DIV MUL DUP4 MSTORE SWAP2 PUSH1 0x20 ADD SWAP2 PUSH2 0x1A6 JUMP JUMPDEST DUP3 ADD SWAP2 SWAP1 PUSH1 0x0 MSTORE PUSH1 0x20 PUSH1 0x0 KECCAK256 SWAP1 JUMPDEST DUP2 SLOAD DUP2 MSTORE SWAP1 PUSH1 0x1 ADD SWAP1 PUSH1 0x20 ADD DUP1 DUP4 GT PUSH2 0x189 JUMPI DUP3 SWAP1 SUB PUSH1 0x1F AND DUP3 ADD SWAP2 JUMPDEST POP POP POP POP POP SWAP1 POP SWAP1 JUMP JUMPDEST PUSH1 0x0 PUSH1 0x20 DUP1 DUP4 MSTORE DUP4 MLOAD DUP1 DUP3 DUP6 ADD MSTORE PUSH1 0x0 JUMPDEST DUP2 DUP2 LT ISZERO PUSH2 0x1DD JUMPI DUP6 DUP2 ADD DUP4 ADD MLOAD DUP6 DUP3 ADD PUSH1 0x40 ADD MSTORE DUP3 ADD PUSH2 0x1C1 JUMP JUMPDEST POP PUSH1 0x0 PUSH1 0x40 DUP3 DUP7 ADD ADD MSTORE PUSH1 0x40 PUSH1 0x1F NOT PUSH1 0x1F DUP4 ADD AND DUP6 ADD ADD SWAP3 POP POP POP SWAP3 SWAP2 POP POP JUMP JUMPDEST PUSH1 0x20 DUP1 DUP3 MSTORE PUSH1 0x35 SWAP1 DUP3 ADD MSTORE PUSH32 0x4F6E6C7920746865206F776E65722063616E20696E6372656D656E74206F7220 PUSH1 0x40 DUP3 ADD MSTORE PUSH21 0x3232B1B932B6B2B73A103A34329031B7BAB73A32B9 PUSH1 0x59 SHL PUSH1 0x60 DUP3 ADD MSTORE PUSH1 0x80 ADD SWAP1 JUMP JUMPDEST PUSH4 0x4E487B71 PUSH1 0xE0 SHL PUSH1 0x0 MSTORE PUSH1 0x11 PUSH1 0x4 MSTORE PUSH1 0x24 PUSH1 0x0 REVERT JUMPDEST DUP1 DUP3 ADD DUP1 DUP3 GT ISZERO PUSH2 0x27C JUMPI PUSH2 0x27C PUSH2 0x253 JUMP JUMPDEST SWAP3 SWAP2 POP POP JUMP JUMPDEST DUP2 DUP2 SUB DUP2 DUP2 GT ISZERO PUSH2 0x27C JUMPI PUSH2 0x27C PUSH2 0x253 JUMP JUMPDEST PUSH1 0x1 DUP2 DUP2 SHR SWAP1 DUP3 AND DUP1 PUSH2 0x2A9 JUMPI PUSH1 0x7F DUP3 AND SWAP2 POP JUMPDEST PUSH1 0x20 DUP3 LT DUP2 SUB PUSH2 0x2C9 JUMPI PUSH4 0x4E487B71 PUSH1 0xE0 SHL PUSH1 0x0 MSTORE PUSH1 0x22 PUSH1 0x4 MSTORE PUSH1 0x24 PUSH1 0x0 REVERT JUMPDEST POP SWAP2 SWAP1 POP JUMP INVALID LOG2 PUSH5 0x6970667358 0x22 SLT KECCAK256 0x29 0xD0 PUSH27 0xFFD656A3C177EF1EB35624627F677D069244AF809A8EAAE37D0FE0 0xAB 0xBB PUSH5 0x736F6C6343 STOP ADDMOD SLT STOP CALLER "
				},
				"gasEstimates": {
					"creation": {
						"codeDepositCost": "154600",
						"executionCost": "infinite",
						"totalCost": "infinite"
					},
					"external": {
						"decrement_counter()": "26612",
						"get_counter_description()": "infinite",
						"get_counter_value()": "2247",
						"increment_counter()": "26590"
					}
				},
				"methodIdentifiers": {
					"decrement_counter()": "b4c89bea",
					"get_counter_description()": "cfcdcd72",
					"get_counter_value()": "24b1cc13",
					"increment_counter()": "82b15f37"
				}
			},
			"storageLayout": {
				"storage": [
					{
						"astId": 3,
						"contract": "First Task.sol:Example",
						"label": "owner",
						"offset": 0,
						"slot": "0",
						"type": "t_address"
					},
					{
						"astId": 11,
						"contract": "First Task.sol:Example",
						"label": "counter",
						"offset": 0,
						"slot": "1",
						"type": "t_struct(Counter)8_storage"
					}
				],
				"types": {
					"t_address": {
						"encoding": "inplace",
						"label": "address",
						"numberOfBytes": "20"
					},
					"t_string_storage": {
						"encoding": "bytes",
						"label": "string",
						"numberOfBytes": "32"
					},
					"t_struct(Counter)8_storage": {
						"encoding": "inplace",
						"label": "struct Example.Counter",
						"members": [
							{
								"astId": 5,
								"contract": "First Task.sol:Example",
								"label": "number",
								"offset": 0,
								"slot": "0",
								"type": "t_uint256"
							},
							{
								"astId": 7,
								"contract": "First Task.sol:Example",
								"label": "description",
								"offset": 0,
								"slot": "1",
								"type": "t_string_storage"
							}
						],
						"numberOfBytes": "64"
					},
					"t_uint256": {
						"encoding": "inplace",
						"label": "uint256",
						"numberOfBytes": "32"
					}
				}
			},
			"userdoc": {
				"kind": "user",
				"methods": {},
				"version": 1
			}
		}
	}
}